{
  "_format": "hh-sol-artifact-1",
  "contractName": "NFT",
  "sourceName": "contracts/NFT.sol",
  "abi": [
    {
      "inputs": [
        {
          "internalType": "string",
          "name": "_name",
          "type": "string"
        },
        {
          "internalType": "string",
          "name": "_symbol",
          "type": "string"
        },
        {
          "internalType": "string",
          "name": "_initBaseURI",
          "type": "string"
        }
      ],
      "stateMutability": "nonpayable",
      "type": "constructor"
    },
    {
      "anonymous": false,
      "inputs": [
        {
          "indexed": true,
          "internalType": "address",
          "name": "owner",
          "type": "address"
        },
        {
          "indexed": true,
          "internalType": "address",
          "name": "approved",
          "type": "address"
        },
        {
          "indexed": true,
          "internalType": "uint256",
          "name": "tokenId",
          "type": "uint256"
        }
      ],
      "name": "Approval",
      "type": "event"
    },
    {
      "anonymous": false,
      "inputs": [
        {
          "indexed": true,
          "internalType": "address",
          "name": "owner",
          "type": "address"
        },
        {
          "indexed": true,
          "internalType": "address",
          "name": "operator",
          "type": "address"
        },
        {
          "indexed": false,
          "internalType": "bool",
          "name": "approved",
          "type": "bool"
        }
      ],
      "name": "ApprovalForAll",
      "type": "event"
    },
    {
      "anonymous": false,
      "inputs": [
        {
          "indexed": true,
          "internalType": "address",
          "name": "previousOwner",
          "type": "address"
        },
        {
          "indexed": true,
          "internalType": "address",
          "name": "newOwner",
          "type": "address"
        }
      ],
      "name": "OwnershipTransferred",
      "type": "event"
    },
    {
      "anonymous": false,
      "inputs": [
        {
          "indexed": true,
          "internalType": "address",
          "name": "from",
          "type": "address"
        },
        {
          "indexed": true,
          "internalType": "address",
          "name": "to",
          "type": "address"
        },
        {
          "indexed": true,
          "internalType": "uint256",
          "name": "tokenId",
          "type": "uint256"
        }
      ],
      "name": "Transfer",
      "type": "event"
    },
    {
      "inputs": [
        {
          "internalType": "address",
          "name": "to",
          "type": "address"
        },
        {
          "internalType": "uint256",
          "name": "tokenId",
          "type": "uint256"
        }
      ],
      "name": "approve",
      "outputs": [],
      "stateMutability": "nonpayable",
      "type": "function"
    },
    {
      "inputs": [
        {
          "internalType": "address",
          "name": "owner",
          "type": "address"
        }
      ],
      "name": "balanceOf",
      "outputs": [
        {
          "internalType": "uint256",
          "name": "",
          "type": "uint256"
        }
      ],
      "stateMutability": "view",
      "type": "function"
    },
    {
      "inputs": [],
      "name": "baseExtension",
      "outputs": [
        {
          "internalType": "string",
          "name": "",
          "type": "string"
        }
      ],
      "stateMutability": "view",
      "type": "function"
    },
    {
      "inputs": [],
      "name": "baseURI",
      "outputs": [
        {
          "internalType": "string",
          "name": "",
          "type": "string"
        }
      ],
      "stateMutability": "view",
      "type": "function"
    },
    {
      "inputs": [],
      "name": "cost",
      "outputs": [
        {
          "internalType": "uint256",
          "name": "",
          "type": "uint256"
        }
      ],
      "stateMutability": "view",
      "type": "function"
    },
    {
      "inputs": [
        {
          "internalType": "uint256",
          "name": "tokenId",
          "type": "uint256"
        }
      ],
      "name": "getApproved",
      "outputs": [
        {
          "internalType": "address",
          "name": "",
          "type": "address"
        }
      ],
      "stateMutability": "view",
      "type": "function"
    },
    {
      "inputs": [
        {
          "internalType": "address",
          "name": "owner",
          "type": "address"
        },
        {
          "internalType": "address",
          "name": "operator",
          "type": "address"
        }
      ],
      "name": "isApprovedForAll",
      "outputs": [
        {
          "internalType": "bool",
          "name": "",
          "type": "bool"
        }
      ],
      "stateMutability": "view",
      "type": "function"
    },
    {
      "inputs": [],
      "name": "maxMintAmount",
      "outputs": [
        {
          "internalType": "uint256",
          "name": "",
          "type": "uint256"
        }
      ],
      "stateMutability": "view",
      "type": "function"
    },
    {
      "inputs": [],
      "name": "maxSupply",
      "outputs": [
        {
          "internalType": "uint256",
          "name": "",
          "type": "uint256"
        }
      ],
      "stateMutability": "view",
      "type": "function"
    },
    {
      "inputs": [
        {
          "internalType": "address",
          "name": "_to",
          "type": "address"
        },
        {
          "internalType": "uint256",
          "name": "_mintAmount",
          "type": "uint256"
        }
      ],
      "name": "mint",
      "outputs": [],
      "stateMutability": "payable",
      "type": "function"
    },
    {
      "inputs": [],
      "name": "name",
      "outputs": [
        {
          "internalType": "string",
          "name": "",
          "type": "string"
        }
      ],
      "stateMutability": "view",
      "type": "function"
    },
    {
      "inputs": [],
      "name": "owner",
      "outputs": [
        {
          "internalType": "address",
          "name": "",
          "type": "address"
        }
      ],
      "stateMutability": "view",
      "type": "function"
    },
    {
      "inputs": [
        {
          "internalType": "uint256",
          "name": "tokenId",
          "type": "uint256"
        }
      ],
      "name": "ownerOf",
      "outputs": [
        {
          "internalType": "address",
          "name": "",
          "type": "address"
        }
      ],
      "stateMutability": "view",
      "type": "function"
    },
    {
      "inputs": [
        {
          "internalType": "bool",
          "name": "_state",
          "type": "bool"
        }
      ],
      "name": "pause",
      "outputs": [],
      "stateMutability": "nonpayable",
      "type": "function"
    },
    {
      "inputs": [],
      "name": "paused",
      "outputs": [
        {
          "internalType": "bool",
          "name": "",
          "type": "bool"
        }
      ],
      "stateMutability": "view",
      "type": "function"
    },
    {
      "inputs": [
        {
          "internalType": "address[]",
          "name": "_user",
          "type": "address[]"
        }
      ],
      "name": "removeWhitelistUser",
      "outputs": [],
      "stateMutability": "nonpayable",
      "type": "function"
    },
    {
      "inputs": [],
      "name": "renounceOwnership",
      "outputs": [],
      "stateMutability": "nonpayable",
      "type": "function"
    },
    {
      "inputs": [
        {
          "internalType": "address",
          "name": "from",
          "type": "address"
        },
        {
          "internalType": "address",
          "name": "to",
          "type": "address"
        },
        {
          "internalType": "uint256",
          "name": "tokenId",
          "type": "uint256"
        }
      ],
      "name": "safeTransferFrom",
      "outputs": [],
      "stateMutability": "nonpayable",
      "type": "function"
    },
    {
      "inputs": [
        {
          "internalType": "address",
          "name": "from",
          "type": "address"
        },
        {
          "internalType": "address",
          "name": "to",
          "type": "address"
        },
        {
          "internalType": "uint256",
          "name": "tokenId",
          "type": "uint256"
        },
        {
          "internalType": "bytes",
          "name": "_data",
          "type": "bytes"
        }
      ],
      "name": "safeTransferFrom",
      "outputs": [],
      "stateMutability": "nonpayable",
      "type": "function"
    },
    {
      "inputs": [
        {
          "internalType": "address",
          "name": "operator",
          "type": "address"
        },
        {
          "internalType": "bool",
          "name": "approved",
          "type": "bool"
        }
      ],
      "name": "setApprovalForAll",
      "outputs": [],
      "stateMutability": "nonpayable",
      "type": "function"
    },
    {
      "inputs": [
        {
          "internalType": "string",
          "name": "_newBaseExtension",
          "type": "string"
        }
      ],
      "name": "setBaseExtension",
      "outputs": [],
      "stateMutability": "nonpayable",
      "type": "function"
    },
    {
      "inputs": [
        {
          "internalType": "string",
          "name": "_newBaseURI",
          "type": "string"
        }
      ],
      "name": "setBaseURI",
      "outputs": [],
      "stateMutability": "nonpayable",
      "type": "function"
    },
    {
      "inputs": [
        {
          "internalType": "uint256",
          "name": "_newCost",
          "type": "uint256"
        }
      ],
      "name": "setCost",
      "outputs": [],
      "stateMutability": "nonpayable",
      "type": "function"
    },
    {
      "inputs": [
        {
          "internalType": "uint256",
          "name": "_newmaxMintAmount",
          "type": "uint256"
        }
      ],
      "name": "setMaxMintAmount",
      "outputs": [],
      "stateMutability": "nonpayable",
      "type": "function"
    },
    {
      "inputs": [
        {
          "internalType": "uint256",
          "name": "_newmaxMintAmount",
          "type": "uint256"
        },
        {
          "internalType": "uint256",
          "name": "_newWalletLimit",
          "type": "uint256"
        }
      ],
      "name": "setMaxMintAmountAndWalletLimit",
      "outputs": [],
      "stateMutability": "nonpayable",
      "type": "function"
    },
    {
      "inputs": [
        {
          "internalType": "uint256",
          "name": "_newSupply",
          "type": "uint256"
        }
      ],
      "name": "setMaxSupply",
      "outputs": [],
      "stateMutability": "nonpayable",
      "type": "function"
    },
    {
      "inputs": [
        {
          "internalType": "uint256",
          "name": "_newWalletLimit",
          "type": "uint256"
        }
      ],
      "name": "setWalletLimit",
      "outputs": [],
      "stateMutability": "nonpayable",
      "type": "function"
    },
    {
      "inputs": [
        {
          "internalType": "bytes4",
          "name": "interfaceId",
          "type": "bytes4"
        }
      ],
      "name": "supportsInterface",
      "outputs": [
        {
          "internalType": "bool",
          "name": "",
          "type": "bool"
        }
      ],
      "stateMutability": "view",
      "type": "function"
    },
    {
      "inputs": [],
      "name": "symbol",
      "outputs": [
        {
          "internalType": "string",
          "name": "",
          "type": "string"
        }
      ],
      "stateMutability": "view",
      "type": "function"
    },
    {
      "inputs": [
        {
          "internalType": "uint256",
          "name": "index",
          "type": "uint256"
        }
      ],
      "name": "tokenByIndex",
      "outputs": [
        {
          "internalType": "uint256",
          "name": "",
          "type": "uint256"
        }
      ],
      "stateMutability": "view",
      "type": "function"
    },
    {
      "inputs": [
        {
          "internalType": "address",
          "name": "owner",
          "type": "address"
        },
        {
          "internalType": "uint256",
          "name": "index",
          "type": "uint256"
        }
      ],
      "name": "tokenOfOwnerByIndex",
      "outputs": [
        {
          "internalType": "uint256",
          "name": "",
          "type": "uint256"
        }
      ],
      "stateMutability": "view",
      "type": "function"
    },
    {
      "inputs": [
        {
          "internalType": "uint256",
          "name": "tokenId",
          "type": "uint256"
        }
      ],
      "name": "tokenURI",
      "outputs": [
        {
          "internalType": "string",
          "name": "",
          "type": "string"
        }
      ],
      "stateMutability": "view",
      "type": "function"
    },
    {
      "inputs": [],
      "name": "totalSupply",
      "outputs": [
        {
          "internalType": "uint256",
          "name": "",
          "type": "uint256"
        }
      ],
      "stateMutability": "view",
      "type": "function"
    },
    {
      "inputs": [
        {
          "internalType": "address",
          "name": "from",
          "type": "address"
        },
        {
          "internalType": "address",
          "name": "to",
          "type": "address"
        },
        {
          "internalType": "uint256",
          "name": "tokenId",
          "type": "uint256"
        }
      ],
      "name": "transferFrom",
      "outputs": [],
      "stateMutability": "nonpayable",
      "type": "function"
    },
    {
      "inputs": [
        {
          "internalType": "address",
          "name": "newOwner",
          "type": "address"
        }
      ],
      "name": "transferOwnership",
      "outputs": [],
      "stateMutability": "nonpayable",
      "type": "function"
    },
    {
      "inputs": [],
      "name": "walletLimit",
      "outputs": [
        {
          "internalType": "uint256",
          "name": "",
          "type": "uint256"
        }
      ],
      "stateMutability": "view",
      "type": "function"
    },
    {
      "inputs": [
        {
          "internalType": "address",
          "name": "_owner",
          "type": "address"
        }
      ],
      "name": "walletOfOwner",
      "outputs": [
        {
          "internalType": "uint256[]",
          "name": "",
          "type": "uint256[]"
        }
      ],
      "stateMutability": "view",
      "type": "function"
    },
    {
      "inputs": [
        {
          "internalType": "address[]",
          "name": "_user",
          "type": "address[]"
        }
      ],
      "name": "whitelistUser",
      "outputs": [],
      "stateMutability": "nonpayable",
      "type": "function"
    },
    {
      "inputs": [
        {
          "internalType": "address",
          "name": "",
          "type": "address"
        }
      ],
      "name": "whitelisted",
      "outputs": [
        {
          "internalType": "bool",
          "name": "",
          "type": "bool"
        }
      ],
      "stateMutability": "view",
      "type": "function"
    },
    {
      "inputs": [],
      "name": "withdraw",
      "outputs": [],
      "stateMutability": "payable",
      "type": "function"
    }
  ],
  "bytecode": "0x608060405260405180602001604052806000815250600c90805190602001906200002b929190620002a8565b50668e1bc9bf040000600d55612710600e556064600f556000601060006101000a81548160ff02191690831515021790555060056011553480156200006f57600080fd5b5060405162004f0338038062004f038339818101604052810190620000959190620003ca565b82828160009080519060200190620000af929190620002a8565b508060019080519060200190620000c8929190620002a8565b505050620000eb620000df6200010560201b60201c565b6200010d60201b60201c565b620000fc81620001d360201b60201c565b5050506200065e565b600033905090565b6000600a60009054906101000a900473ffffffffffffffffffffffffffffffffffffffff16905081600a60006101000a81548173ffffffffffffffffffffffffffffffffffffffff021916908373ffffffffffffffffffffffffffffffffffffffff1602179055508173ffffffffffffffffffffffffffffffffffffffff168173ffffffffffffffffffffffffffffffffffffffff167f8be0079c531659141344cd1fd0a4f28419497f9722a3daafe3b4186f6b6457e060405160405180910390a35050565b620001e36200010560201b60201c565b73ffffffffffffffffffffffffffffffffffffffff16620002096200027e60201b60201c565b73ffffffffffffffffffffffffffffffffffffffff161462000262576040517f08c379a0000000000000000000000000000000000000000000000000000000008152600401620002599062000492565b60405180910390fd5b80600b90805190602001906200027a929190620002a8565b5050565b6000600a60009054906101000a900473ffffffffffffffffffffffffffffffffffffffff16905090565b828054620002b6906200055a565b90600052602060002090601f016020900481019282620002da576000855562000326565b82601f10620002f557805160ff191683800117855562000326565b8280016001018555821562000326579182015b828111156200032557825182559160200191906001019062000308565b5b50905062000335919062000339565b5090565b5b80821115620003545760008160009055506001016200033a565b5090565b60006200036f6200036984620004dd565b620004b4565b9050828152602081018484840111156200038857600080fd5b6200039584828562000524565b509392505050565b600082601f830112620003af57600080fd5b8151620003c184826020860162000358565b91505092915050565b600080600060608486031215620003e057600080fd5b600084015167ffffffffffffffff811115620003fb57600080fd5b62000409868287016200039d565b935050602084015167ffffffffffffffff8111156200042757600080fd5b62000435868287016200039d565b925050604084015167ffffffffffffffff8111156200045357600080fd5b62000461868287016200039d565b9150509250925092565b60006200047a60208362000513565b9150620004878262000635565b602082019050919050565b60006020820190508181036000830152620004ad816200046b565b9050919050565b6000620004c0620004d3565b9050620004ce828262000590565b919050565b6000604051905090565b600067ffffffffffffffff821115620004fb57620004fa620005f5565b5b620005068262000624565b9050602081019050919050565b600082825260208201905092915050565b60005b838110156200054457808201518184015260208101905062000527565b8381111562000554576000848401525b50505050565b600060028204905060018216806200057357607f821691505b602082108114156200058a5762000589620005c6565b5b50919050565b6200059b8262000624565b810181811067ffffffffffffffff82111715620005bd57620005bc620005f5565b5b80604052505050565b7f4e487b7100000000000000000000000000000000000000000000000000000000600052602260045260246000fd5b7f4e487b7100000000000000000000000000000000000000000000000000000000600052604160045260246000fd5b6000601f19601f8301169050919050565b7f4f776e61626c653a2063616c6c6572206973206e6f7420746865206f776e6572600082015250565b614895806200066e6000396000f3fe60806040526004361061023b5760003560e01c80635c975abb1161012e578063a22cb465116100ab578063d936547e1161006f578063d936547e14610853578063da3ef23f14610890578063e985e9c5146108b9578063f1d5f517146108f6578063f2fde38b1461091f5761023b565b8063a22cb4651461076e578063b88d4fde14610797578063c6682862146107c0578063c87b56dd146107eb578063d5abeb01146108285761023b565b8063715018a6116100f2578063715018a6146106af5780638da5cb5b146106c657806395d89b41146106f1578063999abb7b1461071c5780639b6fbf8a146107455761023b565b80635c975abb146105b65780636352211e146105e15780636c0360eb1461061e5780636f8b44b01461064957806370a08231146106725761023b565b806323b872dd116101bc57806342842e0e1161018057806342842e0e146104c1578063438b6300146104ea57806344a0d68a146105275780634f6ccce71461055057806355f804b31461058d5761023b565b806323b872dd1461040a5780632f745c59146104335780633c8463a1146104705780633ccfd60b1461049b57806340c10f19146104a55761023b565b8063095ea7b311610203578063095ea7b3146103375780630f5fa1991461036057806313faede61461038957806318160ddd146103b4578063239c70ae146103df5761023b565b806301ffc9a71461024057806302329a291461027d57806306fdde03146102a6578063081812fc146102d1578063088a4ed01461030e575b600080fd5b34801561024c57600080fd5b50610267600480360381019061026291906135ae565b610948565b6040516102749190613bcd565b60405180910390f35b34801561028957600080fd5b506102a4600480360381019061029f9190613585565b6109c2565b005b3480156102b257600080fd5b506102bb610a5b565b6040516102c89190613be8565b60405180910390f35b3480156102dd57600080fd5b506102f860048036038101906102f39190613641565b610aed565b6040516103059190613b44565b60405180910390f35b34801561031a57600080fd5b5061033560048036038101906103309190613641565b610b72565b005b34801561034357600080fd5b5061035e60048036038101906103599190613508565b610bf8565b005b34801561036c57600080fd5b506103876004803603810190610382919061366a565b610d10565b005b34801561039557600080fd5b5061039e610d9e565b6040516103ab9190613e6a565b60405180910390f35b3480156103c057600080fd5b506103c9610da4565b6040516103d69190613e6a565b60405180910390f35b3480156103eb57600080fd5b506103f4610db1565b6040516104019190613e6a565b60405180910390f35b34801561041657600080fd5b50610431600480360381019061042c9190613402565b610db7565b005b34801561043f57600080fd5b5061045a60048036038101906104559190613508565b610e17565b6040516104679190613e6a565b60405180910390f35b34801561047c57600080fd5b50610485610ebc565b6040516104929190613e6a565b60405180910390f35b6104a3610ec2565b005b6104bf60048036038101906104ba9190613508565b610f7e565b005b3480156104cd57600080fd5b506104e860048036038101906104e39190613402565b61106e565b005b3480156104f657600080fd5b50610511600480360381019061050c919061339d565b61108e565b60405161051e9190613bab565b60405180910390f35b34801561053357600080fd5b5061054e60048036038101906105499190613641565b611188565b005b34801561055c57600080fd5b5061057760048036038101906105729190613641565b61120e565b6040516105849190613e6a565b60405180910390f35b34801561059957600080fd5b506105b460048036038101906105af9190613600565b6112a5565b005b3480156105c257600080fd5b506105cb61133b565b6040516105d89190613bcd565b60405180910390f35b3480156105ed57600080fd5b5061060860048036038101906106039190613641565b61134e565b6040516106159190613b44565b60405180910390f35b34801561062a57600080fd5b50610633611400565b6040516106409190613be8565b60405180910390f35b34801561065557600080fd5b50610670600480360381019061066b9190613641565b61148e565b005b34801561067e57600080fd5b506106996004803603810190610694919061339d565b611514565b6040516106a69190613e6a565b60405180910390f35b3480156106bb57600080fd5b506106c46115cc565b005b3480156106d257600080fd5b506106db611654565b6040516106e89190613b44565b60405180910390f35b3480156106fd57600080fd5b5061070661167e565b6040516107139190613be8565b60405180910390f35b34801561072857600080fd5b50610743600480360381019061073e9190613544565b611710565b005b34801561075157600080fd5b5061076c60048036038101906107679190613544565b611847565b005b34801561077a57600080fd5b50610795600480360381019061079091906134cc565b61197e565b005b3480156107a357600080fd5b506107be60048036038101906107b99190613451565b611994565b005b3480156107cc57600080fd5b506107d56119f6565b6040516107e29190613be8565b60405180910390f35b3480156107f757600080fd5b50610812600480360381019061080d9190613641565b611a84565b60405161081f9190613be8565b60405180910390f35b34801561083457600080fd5b5061083d611b2e565b60405161084a9190613e6a565b60405180910390f35b34801561085f57600080fd5b5061087a6004803603810190610875919061339d565b611b34565b6040516108879190613bcd565b60405180910390f35b34801561089c57600080fd5b506108b760048036038101906108b29190613600565b611b54565b005b3480156108c557600080fd5b506108e060048036038101906108db91906133c6565b611bea565b6040516108ed9190613bcd565b60405180910390f35b34801561090257600080fd5b5061091d60048036038101906109189190613641565b611c7e565b005b34801561092b57600080fd5b506109466004803603810190610941919061339d565b611d04565b005b60007f780e9d63000000000000000000000000000000000000000000000000000000007bffffffffffffffffffffffffffffffffffffffffffffffffffffffff1916827bffffffffffffffffffffffffffffffffffffffffffffffffffffffff191614806109bb57506109ba82611dfc565b5b9050919050565b6109ca611ede565b73ffffffffffffffffffffffffffffffffffffffff166109e8611654565b73ffffffffffffffffffffffffffffffffffffffff1614610a3e576040517f08c379a0000000000000000000000000000000000000000000000000000000008152600401610a3590613dea565b60405180910390fd5b80601060006101000a81548160ff02191690831515021790555050565b606060008054610a6a9061413a565b80601f0160208091040260200160405190810160405280929190818152602001828054610a969061413a565b8015610ae35780601f10610ab857610100808354040283529160200191610ae3565b820191906000526020600020905b815481529060010190602001808311610ac657829003601f168201915b5050505050905090565b6000610af882611ee6565b610b37576040517f08c379a0000000000000000000000000000000000000000000000000000000008152600401610b2e90613dca565b60405180910390fd5b6004600083815260200190815260200160002060009054906101000a900473ffffffffffffffffffffffffffffffffffffffff169050919050565b610b7a611ede565b73ffffffffffffffffffffffffffffffffffffffff16610b98611654565b73ffffffffffffffffffffffffffffffffffffffff1614610bee576040517f08c379a0000000000000000000000000000000000000000000000000000000008152600401610be590613dea565b60405180910390fd5b80600f8190555050565b6000610c038261134e565b90508073ffffffffffffffffffffffffffffffffffffffff168373ffffffffffffffffffffffffffffffffffffffff161415610c74576040517f08c379a0000000000000000000000000000000000000000000000000000000008152600401610c6b90613e0a565b60405180910390fd5b8073ffffffffffffffffffffffffffffffffffffffff16610c93611ede565b73ffffffffffffffffffffffffffffffffffffffff161480610cc25750610cc181610cbc611ede565b611bea565b5b610d01576040517f08c379a0000000000000000000000000000000000000000000000000000000008152600401610cf890613d2a565b60405180910390fd5b610d0b8383611f52565b505050565b610d18611ede565b73ffffffffffffffffffffffffffffffffffffffff16610d36611654565b73ffffffffffffffffffffffffffffffffffffffff1614610d8c576040517f08c379a0000000000000000000000000000000000000000000000000000000008152600401610d8390613dea565b60405180910390fd5b81600f81905550806011819055505050565b600d5481565b6000600880549050905090565b600f5481565b610dc8610dc2611ede565b8261200b565b610e07576040517f08c379a0000000000000000000000000000000000000000000000000000000008152600401610dfe90613e2a565b60405180910390fd5b610e128383836120e9565b505050565b6000610e2283611514565b8210610e63576040517f08c379a0000000000000000000000000000000000000000000000000000000008152600401610e5a90613c0a565b60405180910390fd5b600660008473ffffffffffffffffffffffffffffffffffffffff1673ffffffffffffffffffffffffffffffffffffffff168152602001908152602001600020600083815260200190815260200160002054905092915050565b60115481565b610eca611ede565b73ffffffffffffffffffffffffffffffffffffffff16610ee8611654565b73ffffffffffffffffffffffffffffffffffffffff1614610f3e576040517f08c379a0000000000000000000000000000000000000000000000000000000008152600401610f3590613dea565b60405180910390fd5b3373ffffffffffffffffffffffffffffffffffffffff166108fc479081150290604051600060405180830381858888f19350505050610f7c57600080fd5b565b6000610f88610da4565b9050601060009054906101000a900460ff1615610fa457600080fd5b60008211610fb157600080fd5b600f54821115610fc057600080fd5b600e548282610fcf9190613fc9565b1115610fda57600080fd5b60115482610fe733611514565b610ff19190613fc9565b1115611032576040517f08c379a000000000000000000000000000000000000000000000000000000000815260040161102990613d0a565b60405180910390fd5b6000600190505b828111611068576110558482846110509190613fc9565b612350565b80806110609061419d565b915050611039565b50505050565b61108983838360405180602001604052806000815250611994565b505050565b6060600061109b83611514565b905060008167ffffffffffffffff8111156110df577f4e487b7100000000000000000000000000000000000000000000000000000000600052604160045260246000fd5b60405190808252806020026020018201604052801561110d5781602001602082028036833780820191505090505b50905060005b8281101561117d576111258582610e17565b82828151811061115e577f4e487b7100000000000000000000000000000000000000000000000000000000600052603260045260246000fd5b60200260200101818152505080806111759061419d565b915050611113565b508092505050919050565b611190611ede565b73ffffffffffffffffffffffffffffffffffffffff166111ae611654565b73ffffffffffffffffffffffffffffffffffffffff1614611204576040517f08c379a00000000000000000000000000000000000000000000000000000000081526004016111fb90613dea565b60405180910390fd5b80600d8190555050565b6000611218610da4565b8210611259576040517f08c379a000000000000000000000000000000000000000000000000000000000815260040161125090613e4a565b60405180910390fd5b60088281548110611293577f4e487b7100000000000000000000000000000000000000000000000000000000600052603260045260246000fd5b90600052602060002001549050919050565b6112ad611ede565b73ffffffffffffffffffffffffffffffffffffffff166112cb611654565b73ffffffffffffffffffffffffffffffffffffffff1614611321576040517f08c379a000000000000000000000000000000000000000000000000000000000815260040161131890613dea565b60405180910390fd5b80600b908051906020019061133792919061312b565b5050565b601060009054906101000a900460ff1681565b6000806002600084815260200190815260200160002060009054906101000a900473ffffffffffffffffffffffffffffffffffffffff169050600073ffffffffffffffffffffffffffffffffffffffff168173ffffffffffffffffffffffffffffffffffffffff1614156113f7576040517f08c379a00000000000000000000000000000000000000000000000000000000081526004016113ee90613d6a565b60405180910390fd5b80915050919050565b600b805461140d9061413a565b80601f01602080910402602001604051908101604052809291908181526020018280546114399061413a565b80156114865780601f1061145b57610100808354040283529160200191611486565b820191906000526020600020905b81548152906001019060200180831161146957829003601f168201915b505050505081565b611496611ede565b73ffffffffffffffffffffffffffffffffffffffff166114b4611654565b73ffffffffffffffffffffffffffffffffffffffff161461150a576040517f08c379a000000000000000000000000000000000000000000000000000000000815260040161150190613dea565b60405180910390fd5b80600e8190555050565b60008073ffffffffffffffffffffffffffffffffffffffff168273ffffffffffffffffffffffffffffffffffffffff161415611585576040517f08c379a000000000000000000000000000000000000000000000000000000000815260040161157c90613d4a565b60405180910390fd5b600360008373ffffffffffffffffffffffffffffffffffffffff1673ffffffffffffffffffffffffffffffffffffffff168152602001908152602001600020549050919050565b6115d4611ede565b73ffffffffffffffffffffffffffffffffffffffff166115f2611654565b73ffffffffffffffffffffffffffffffffffffffff1614611648576040517f08c379a000000000000000000000000000000000000000000000000000000000815260040161163f90613dea565b60405180910390fd5b611652600061236e565b565b6000600a60009054906101000a900473ffffffffffffffffffffffffffffffffffffffff16905090565b60606001805461168d9061413a565b80601f01602080910402602001604051908101604052809291908181526020018280546116b99061413a565b80156117065780601f106116db57610100808354040283529160200191611706565b820191906000526020600020905b8154815290600101906020018083116116e957829003601f168201915b5050505050905090565b611718611ede565b73ffffffffffffffffffffffffffffffffffffffff16611736611654565b73ffffffffffffffffffffffffffffffffffffffff161461178c576040517f08c379a000000000000000000000000000000000000000000000000000000000815260040161178390613dea565b60405180910390fd5b60005b8151811015611843576000601260008484815181106117d7577f4e487b7100000000000000000000000000000000000000000000000000000000600052603260045260246000fd5b602002602001015173ffffffffffffffffffffffffffffffffffffffff1673ffffffffffffffffffffffffffffffffffffffff16815260200190815260200160002060006101000a81548160ff021916908315150217905550808061183b9061419d565b91505061178f565b5050565b61184f611ede565b73ffffffffffffffffffffffffffffffffffffffff1661186d611654565b73ffffffffffffffffffffffffffffffffffffffff16146118c3576040517f08c379a00000000000000000000000000000000000000000000000000000000081526004016118ba90613dea565b60405180910390fd5b60005b815181101561197a5760016012600084848151811061190e577f4e487b7100000000000000000000000000000000000000000000000000000000600052603260045260246000fd5b602002602001015173ffffffffffffffffffffffffffffffffffffffff1673ffffffffffffffffffffffffffffffffffffffff16815260200190815260200160002060006101000a81548160ff02191690831515021790555080806119729061419d565b9150506118c6565b5050565b611990611989611ede565b8383612434565b5050565b6119a561199f611ede565b8361200b565b6119e4576040517f08c379a00000000000000000000000000000000000000000000000000000000081526004016119db90613e2a565b60405180910390fd5b6119f0848484846125a1565b50505050565b600c8054611a039061413a565b80601f0160208091040260200160405190810160405280929190818152602001828054611a2f9061413a565b8015611a7c5780601f10611a5157610100808354040283529160200191611a7c565b820191906000526020600020905b815481529060010190602001808311611a5f57829003601f168201915b505050505081565b6060611a8f82611ee6565b611ace576040517f08c379a0000000000000000000000000000000000000000000000000000000008152600401611ac590613d8a565b60405180910390fd5b6000611ad86125fd565b90506000815111611af85760405180602001604052806000815250611b26565b80611b028461268f565b600c604051602001611b1693929190613b13565b6040516020818303038152906040525b915050919050565b600e5481565b60126020528060005260406000206000915054906101000a900460ff1681565b611b5c611ede565b73ffffffffffffffffffffffffffffffffffffffff16611b7a611654565b73ffffffffffffffffffffffffffffffffffffffff1614611bd0576040517f08c379a0000000000000000000000000000000000000000000000000000000008152600401611bc790613dea565b60405180910390fd5b80600c9080519060200190611be692919061312b565b5050565b6000600560008473ffffffffffffffffffffffffffffffffffffffff1673ffffffffffffffffffffffffffffffffffffffff16815260200190815260200160002060008373ffffffffffffffffffffffffffffffffffffffff1673ffffffffffffffffffffffffffffffffffffffff16815260200190815260200160002060009054906101000a900460ff16905092915050565b611c86611ede565b73ffffffffffffffffffffffffffffffffffffffff16611ca4611654565b73ffffffffffffffffffffffffffffffffffffffff1614611cfa576040517f08c379a0000000000000000000000000000000000000000000000000000000008152600401611cf190613dea565b60405180910390fd5b8060118190555050565b611d0c611ede565b73ffffffffffffffffffffffffffffffffffffffff16611d2a611654565b73ffffffffffffffffffffffffffffffffffffffff1614611d80576040517f08c379a0000000000000000000000000000000000000000000000000000000008152600401611d7790613dea565b60405180910390fd5b600073ffffffffffffffffffffffffffffffffffffffff168173ffffffffffffffffffffffffffffffffffffffff161415611df0576040517f08c379a0000000000000000000000000000000000000000000000000000000008152600401611de790613c4a565b60405180910390fd5b611df98161236e565b50565b60007f80ac58cd000000000000000000000000000000000000000000000000000000007bffffffffffffffffffffffffffffffffffffffffffffffffffffffff1916827bffffffffffffffffffffffffffffffffffffffffffffffffffffffff19161480611ec757507f5b5e139f000000000000000000000000000000000000000000000000000000007bffffffffffffffffffffffffffffffffffffffffffffffffffffffff1916827bffffffffffffffffffffffffffffffffffffffffffffffffffffffff1916145b80611ed75750611ed68261283c565b5b9050919050565b600033905090565b60008073ffffffffffffffffffffffffffffffffffffffff166002600084815260200190815260200160002060009054906101000a900473ffffffffffffffffffffffffffffffffffffffff1673ffffffffffffffffffffffffffffffffffffffff1614159050919050565b816004600083815260200190815260200160002060006101000a81548173ffffffffffffffffffffffffffffffffffffffff021916908373ffffffffffffffffffffffffffffffffffffffff160217905550808273ffffffffffffffffffffffffffffffffffffffff16611fc58361134e565b73ffffffffffffffffffffffffffffffffffffffff167f8c5be1e5ebec7d5bd14f71427d1e84f3dd0314c0f7b2291e5b200ac8c7c3b92560405160405180910390a45050565b600061201682611ee6565b612055576040517f08c379a000000000000000000000000000000000000000000000000000000000815260040161204c90613cea565b60405180910390fd5b60006120608361134e565b90508073ffffffffffffffffffffffffffffffffffffffff168473ffffffffffffffffffffffffffffffffffffffff1614806120cf57508373ffffffffffffffffffffffffffffffffffffffff166120b784610aed565b73ffffffffffffffffffffffffffffffffffffffff16145b806120e057506120df8185611bea565b5b91505092915050565b8273ffffffffffffffffffffffffffffffffffffffff166121098261134e565b73ffffffffffffffffffffffffffffffffffffffff161461215f576040517f08c379a000000000000000000000000000000000000000000000000000000000815260040161215690613c6a565b60405180910390fd5b600073ffffffffffffffffffffffffffffffffffffffff168273ffffffffffffffffffffffffffffffffffffffff1614156121cf576040517f08c379a00000000000000000000000000000000000000000000000000000000081526004016121c690613caa565b60405180910390fd5b6121da8383836128a6565b6121e5600082611f52565b6001600360008573ffffffffffffffffffffffffffffffffffffffff1673ffffffffffffffffffffffffffffffffffffffff16815260200190815260200160002060008282546122359190614050565b925050819055506001600360008473ffffffffffffffffffffffffffffffffffffffff1673ffffffffffffffffffffffffffffffffffffffff168152602001908152602001600020600082825461228c9190613fc9565b92505081905550816002600083815260200190815260200160002060006101000a81548173ffffffffffffffffffffffffffffffffffffffff021916908373ffffffffffffffffffffffffffffffffffffffff160217905550808273ffffffffffffffffffffffffffffffffffffffff168473ffffffffffffffffffffffffffffffffffffffff167fddf252ad1be2c89b69c2b068fc378daa952ba7f163c4a11628f55a4df523b3ef60405160405180910390a461234b8383836129ba565b505050565b61236a8282604051806020016040528060008152506129bf565b5050565b6000600a60009054906101000a900473ffffffffffffffffffffffffffffffffffffffff16905081600a60006101000a81548173ffffffffffffffffffffffffffffffffffffffff021916908373ffffffffffffffffffffffffffffffffffffffff1602179055508173ffffffffffffffffffffffffffffffffffffffff168173ffffffffffffffffffffffffffffffffffffffff167f8be0079c531659141344cd1fd0a4f28419497f9722a3daafe3b4186f6b6457e060405160405180910390a35050565b8173ffffffffffffffffffffffffffffffffffffffff168373ffffffffffffffffffffffffffffffffffffffff1614156124a3576040517f08c379a000000000000000000000000000000000000000000000000000000000815260040161249a90613cca565b60405180910390fd5b80600560008573ffffffffffffffffffffffffffffffffffffffff1673ffffffffffffffffffffffffffffffffffffffff16815260200190815260200160002060008473ffffffffffffffffffffffffffffffffffffffff1673ffffffffffffffffffffffffffffffffffffffff16815260200190815260200160002060006101000a81548160ff0219169083151502179055508173ffffffffffffffffffffffffffffffffffffffff168373ffffffffffffffffffffffffffffffffffffffff167f17307eab39ab6107e8899845ad3d59bd9653f200f220920489ca2b5937696c31836040516125949190613bcd565b60405180910390a3505050565b6125ac8484846120e9565b6125b884848484612a1a565b6125f7576040517f08c379a00000000000000000000000000000000000000000000000000000000081526004016125ee90613c2a565b60405180910390fd5b50505050565b6060600b805461260c9061413a565b80601f01602080910402602001604051908101604052809291908181526020018280546126389061413a565b80156126855780601f1061265a57610100808354040283529160200191612685565b820191906000526020600020905b81548152906001019060200180831161266857829003601f168201915b5050505050905090565b606060008214156126d7576040518060400160405280600181526020017f30000000000000000000000000000000000000000000000000000000000000008152509050612837565b600082905060005b600082146127095780806126f29061419d565b915050600a82612702919061401f565b91506126df565b60008167ffffffffffffffff81111561274b577f4e487b7100000000000000000000000000000000000000000000000000000000600052604160045260246000fd5b6040519080825280601f01601f19166020018201604052801561277d5781602001600182028036833780820191505090505b5090505b60008514612830576001826127969190614050565b9150600a856127a591906141e6565b60306127b19190613fc9565b60f81b8183815181106127ed577f4e487b7100000000000000000000000000000000000000000000000000000000600052603260045260246000fd5b60200101907effffffffffffffffffffffffffffffffffffffffffffffffffffffffffffff1916908160001a905350600a85612829919061401f565b9450612781565b8093505050505b919050565b60007f01ffc9a7000000000000000000000000000000000000000000000000000000007bffffffffffffffffffffffffffffffffffffffffffffffffffffffff1916827bffffffffffffffffffffffffffffffffffffffffffffffffffffffff1916149050919050565b6128b1838383612bb1565b600073ffffffffffffffffffffffffffffffffffffffff168373ffffffffffffffffffffffffffffffffffffffff1614156128f4576128ef81612bb6565b612933565b8173ffffffffffffffffffffffffffffffffffffffff168373ffffffffffffffffffffffffffffffffffffffff1614612932576129318382612bff565b5b5b600073ffffffffffffffffffffffffffffffffffffffff168273ffffffffffffffffffffffffffffffffffffffff1614156129765761297181612d6c565b6129b5565b8273ffffffffffffffffffffffffffffffffffffffff168273ffffffffffffffffffffffffffffffffffffffff16146129b4576129b38282612eaf565b5b5b505050565b505050565b6129c98383612f2e565b6129d66000848484612a1a565b612a15576040517f08c379a0000000000000000000000000000000000000000000000000000000008152600401612a0c90613c2a565b60405180910390fd5b505050565b6000612a3b8473ffffffffffffffffffffffffffffffffffffffff16613108565b15612ba4578373ffffffffffffffffffffffffffffffffffffffff1663150b7a02612a64611ede565b8786866040518563ffffffff1660e01b8152600401612a869493929190613b5f565b602060405180830381600087803b158015612aa057600080fd5b505af1925050508015612ad157506040513d601f19601f82011682018060405250810190612ace91906135d7565b60015b612b54573d8060008114612b01576040519150601f19603f3d011682016040523d82523d6000602084013e612b06565b606091505b50600081511415612b4c576040517f08c379a0000000000000000000000000000000000000000000000000000000008152600401612b4390613c2a565b60405180910390fd5b805181602001fd5b63150b7a0260e01b7bffffffffffffffffffffffffffffffffffffffffffffffffffffffff1916817bffffffffffffffffffffffffffffffffffffffffffffffffffffffff191614915050612ba9565b600190505b949350505050565b505050565b6008805490506009600083815260200190815260200160002081905550600881908060018154018082558091505060019003906000526020600020016000909190919091505550565b60006001612c0c84611514565b612c169190614050565b9050600060076000848152602001908152602001600020549050818114612cfb576000600660008673ffffffffffffffffffffffffffffffffffffffff1673ffffffffffffffffffffffffffffffffffffffff168152602001908152602001600020600084815260200190815260200160002054905080600660008773ffffffffffffffffffffffffffffffffffffffff1673ffffffffffffffffffffffffffffffffffffffff168152602001908152602001600020600084815260200190815260200160002081905550816007600083815260200190815260200160002081905550505b6007600084815260200190815260200160002060009055600660008573ffffffffffffffffffffffffffffffffffffffff1673ffffffffffffffffffffffffffffffffffffffff16815260200190815260200160002060008381526020019081526020016000206000905550505050565b60006001600880549050612d809190614050565b9050600060096000848152602001908152602001600020549050600060088381548110612dd6577f4e487b7100000000000000000000000000000000000000000000000000000000600052603260045260246000fd5b906000526020600020015490508060088381548110612e1e577f4e487b7100000000000000000000000000000000000000000000000000000000600052603260045260246000fd5b906000526020600020018190555081600960008381526020019081526020016000208190555060096000858152602001908152602001600020600090556008805480612e93577f4e487b7100000000000000000000000000000000000000000000000000000000600052603160045260246000fd5b6001900381819060005260206000200160009055905550505050565b6000612eba83611514565b905081600660008573ffffffffffffffffffffffffffffffffffffffff1673ffffffffffffffffffffffffffffffffffffffff168152602001908152602001600020600083815260200190815260200160002081905550806007600084815260200190815260200160002081905550505050565b600073ffffffffffffffffffffffffffffffffffffffff168273ffffffffffffffffffffffffffffffffffffffff161415612f9e576040517f08c379a0000000000000000000000000000000000000000000000000000000008152600401612f9590613daa565b60405180910390fd5b612fa781611ee6565b15612fe7576040517f08c379a0000000000000000000000000000000000000000000000000000000008152600401612fde90613c8a565b60405180910390fd5b612ff3600083836128a6565b6001600360008473ffffffffffffffffffffffffffffffffffffffff1673ffffffffffffffffffffffffffffffffffffffff16815260200190815260200160002060008282546130439190613fc9565b92505081905550816002600083815260200190815260200160002060006101000a81548173ffffffffffffffffffffffffffffffffffffffff021916908373ffffffffffffffffffffffffffffffffffffffff160217905550808273ffffffffffffffffffffffffffffffffffffffff16600073ffffffffffffffffffffffffffffffffffffffff167fddf252ad1be2c89b69c2b068fc378daa952ba7f163c4a11628f55a4df523b3ef60405160405180910390a4613104600083836129ba565b5050565b6000808273ffffffffffffffffffffffffffffffffffffffff163b119050919050565b8280546131379061413a565b90600052602060002090601f01602090048101928261315957600085556131a0565b82601f1061317257805160ff19168380011785556131a0565b828001600101855582156131a0579182015b8281111561319f578251825591602001919060010190613184565b5b5090506131ad91906131b1565b5090565b5b808211156131ca5760008160009055506001016131b2565b5090565b60006131e16131dc84613eaa565b613e85565b9050808382526020820190508285602086028201111561320057600080fd5b60005b85811015613230578161321688826132b6565b845260208401935060208301925050600181019050613203565b5050509392505050565b600061324d61324884613ed6565b613e85565b90508281526020810184848401111561326557600080fd5b6132708482856140f8565b509392505050565b600061328b61328684613f07565b613e85565b9050828152602081018484840111156132a357600080fd5b6132ae8482856140f8565b509392505050565b6000813590506132c581614803565b92915050565b600082601f8301126132dc57600080fd5b81356132ec8482602086016131ce565b91505092915050565b6000813590506133048161481a565b92915050565b60008135905061331981614831565b92915050565b60008151905061332e81614831565b92915050565b600082601f83011261334557600080fd5b813561335584826020860161323a565b91505092915050565b600082601f83011261336f57600080fd5b813561337f848260208601613278565b91505092915050565b60008135905061339781614848565b92915050565b6000602082840312156133af57600080fd5b60006133bd848285016132b6565b91505092915050565b600080604083850312156133d957600080fd5b60006133e7858286016132b6565b92505060206133f8858286016132b6565b9150509250929050565b60008060006060848603121561341757600080fd5b6000613425868287016132b6565b9350506020613436868287016132b6565b925050604061344786828701613388565b9150509250925092565b6000806000806080858703121561346757600080fd5b6000613475878288016132b6565b9450506020613486878288016132b6565b935050604061349787828801613388565b925050606085013567ffffffffffffffff8111156134b457600080fd5b6134c087828801613334565b91505092959194509250565b600080604083850312156134df57600080fd5b60006134ed858286016132b6565b92505060206134fe858286016132f5565b9150509250929050565b6000806040838503121561351b57600080fd5b6000613529858286016132b6565b925050602061353a85828601613388565b9150509250929050565b60006020828403121561355657600080fd5b600082013567ffffffffffffffff81111561357057600080fd5b61357c848285016132cb565b91505092915050565b60006020828403121561359757600080fd5b60006135a5848285016132f5565b91505092915050565b6000602082840312156135c057600080fd5b60006135ce8482850161330a565b91505092915050565b6000602082840312156135e957600080fd5b60006135f78482850161331f565b91505092915050565b60006020828403121561361257600080fd5b600082013567ffffffffffffffff81111561362c57600080fd5b6136388482850161335e565b91505092915050565b60006020828403121561365357600080fd5b600061366184828501613388565b91505092915050565b6000806040838503121561367d57600080fd5b600061368b85828601613388565b925050602061369c85828601613388565b9150509250929050565b60006136b28383613af5565b60208301905092915050565b6136c781614084565b82525050565b60006136d882613f5d565b6136e28185613f8b565b93506136ed83613f38565b8060005b8381101561371e57815161370588826136a6565b975061371083613f7e565b9250506001810190506136f1565b5085935050505092915050565b61373481614096565b82525050565b600061374582613f68565b61374f8185613f9c565b935061375f818560208601614107565b613768816142d3565b840191505092915050565b600061377e82613f73565b6137888185613fad565b9350613798818560208601614107565b6137a1816142d3565b840191505092915050565b60006137b782613f73565b6137c18185613fbe565b93506137d1818560208601614107565b80840191505092915050565b600081546137ea8161413a565b6137f48186613fbe565b9450600182166000811461380f576001811461382057613853565b60ff19831686528186019350613853565b61382985613f48565b60005b8381101561384b5781548189015260018201915060208101905061382c565b838801955050505b50505092915050565b6000613869602b83613fad565b9150613874826142e4565b604082019050919050565b600061388c603283613fad565b915061389782614333565b604082019050919050565b60006138af602683613fad565b91506138ba82614382565b604082019050919050565b60006138d2602583613fad565b91506138dd826143d1565b604082019050919050565b60006138f5601c83613fad565b915061390082614420565b602082019050919050565b6000613918602483613fad565b915061392382614449565b604082019050919050565b600061393b601983613fad565b915061394682614498565b602082019050919050565b600061395e602c83613fad565b9150613969826144c1565b604082019050919050565b6000613981601883613fad565b915061398c82614510565b602082019050919050565b60006139a4603883613fad565b91506139af82614539565b604082019050919050565b60006139c7602a83613fad565b91506139d282614588565b604082019050919050565b60006139ea602983613fad565b91506139f5826145d7565b604082019050919050565b6000613a0d603683613fad565b9150613a1882614626565b604082019050919050565b6000613a30602083613fad565b9150613a3b82614675565b602082019050919050565b6000613a53602c83613fad565b9150613a5e8261469e565b604082019050919050565b6000613a76602083613fad565b9150613a81826146ed565b602082019050919050565b6000613a99602183613fad565b9150613aa482614716565b604082019050919050565b6000613abc603183613fad565b9150613ac782614765565b604082019050919050565b6000613adf602c83613fad565b9150613aea826147b4565b604082019050919050565b613afe816140ee565b82525050565b613b0d816140ee565b82525050565b6000613b1f82866137ac565b9150613b2b82856137ac565b9150613b3782846137dd565b9150819050949350505050565b6000602082019050613b5960008301846136be565b92915050565b6000608082019050613b7460008301876136be565b613b8160208301866136be565b613b8e6040830185613b04565b8181036060830152613ba0818461373a565b905095945050505050565b60006020820190508181036000830152613bc581846136cd565b905092915050565b6000602082019050613be2600083018461372b565b92915050565b60006020820190508181036000830152613c028184613773565b905092915050565b60006020820190508181036000830152613c238161385c565b9050919050565b60006020820190508181036000830152613c438161387f565b9050919050565b60006020820190508181036000830152613c63816138a2565b9050919050565b60006020820190508181036000830152613c83816138c5565b9050919050565b60006020820190508181036000830152613ca3816138e8565b9050919050565b60006020820190508181036000830152613cc38161390b565b9050919050565b60006020820190508181036000830152613ce38161392e565b9050919050565b60006020820190508181036000830152613d0381613951565b9050919050565b60006020820190508181036000830152613d2381613974565b9050919050565b60006020820190508181036000830152613d4381613997565b9050919050565b60006020820190508181036000830152613d63816139ba565b9050919050565b60006020820190508181036000830152613d83816139dd565b9050919050565b60006020820190508181036000830152613da381613a00565b9050919050565b60006020820190508181036000830152613dc381613a23565b9050919050565b60006020820190508181036000830152613de381613a46565b9050919050565b60006020820190508181036000830152613e0381613a69565b9050919050565b60006020820190508181036000830152613e2381613a8c565b9050919050565b60006020820190508181036000830152613e4381613aaf565b9050919050565b60006020820190508181036000830152613e6381613ad2565b9050919050565b6000602082019050613e7f6000830184613b04565b92915050565b6000613e8f613ea0565b9050613e9b828261416c565b919050565b6000604051905090565b600067ffffffffffffffff821115613ec557613ec46142a4565b5b602082029050602081019050919050565b600067ffffffffffffffff821115613ef157613ef06142a4565b5b613efa826142d3565b9050602081019050919050565b600067ffffffffffffffff821115613f2257613f216142a4565b5b613f2b826142d3565b9050602081019050919050565b6000819050602082019050919050565b60008190508160005260206000209050919050565b600081519050919050565b600081519050919050565b600081519050919050565b6000602082019050919050565b600082825260208201905092915050565b600082825260208201905092915050565b600082825260208201905092915050565b600081905092915050565b6000613fd4826140ee565b9150613fdf836140ee565b9250827fffffffffffffffffffffffffffffffffffffffffffffffffffffffffffffffff0382111561401457614013614217565b5b828201905092915050565b600061402a826140ee565b9150614035836140ee565b92508261404557614044614246565b5b828204905092915050565b600061405b826140ee565b9150614066836140ee565b92508282101561407957614078614217565b5b828203905092915050565b600061408f826140ce565b9050919050565b60008115159050919050565b60007fffffffff0000000000000000000000000000000000000000000000000000000082169050919050565b600073ffffffffffffffffffffffffffffffffffffffff82169050919050565b6000819050919050565b82818337600083830152505050565b60005b8381101561412557808201518184015260208101905061410a565b83811115614134576000848401525b50505050565b6000600282049050600182168061415257607f821691505b6020821081141561416657614165614275565b5b50919050565b614175826142d3565b810181811067ffffffffffffffff82111715614194576141936142a4565b5b80604052505050565b60006141a8826140ee565b91507fffffffffffffffffffffffffffffffffffffffffffffffffffffffffffffffff8214156141db576141da614217565b5b600182019050919050565b60006141f1826140ee565b91506141fc836140ee565b92508261420c5761420b614246565b5b828206905092915050565b7f4e487b7100000000000000000000000000000000000000000000000000000000600052601160045260246000fd5b7f4e487b7100000000000000000000000000000000000000000000000000000000600052601260045260246000fd5b7f4e487b7100000000000000000000000000000000000000000000000000000000600052602260045260246000fd5b7f4e487b7100000000000000000000000000000000000000000000000000000000600052604160045260246000fd5b6000601f19601f8301169050919050565b7f455243373231456e756d657261626c653a206f776e657220696e646578206f7560008201527f74206f6620626f756e6473000000000000000000000000000000000000000000602082015250565b7f4552433732313a207472616e7366657220746f206e6f6e20455243373231526560008201527f63656976657220696d706c656d656e7465720000000000000000000000000000602082015250565b7f4f776e61626c653a206e6577206f776e657220697320746865207a65726f206160008201527f6464726573730000000000000000000000000000000000000000000000000000602082015250565b7f4552433732313a207472616e736665722066726f6d20696e636f72726563742060008201527f6f776e6572000000000000000000000000000000000000000000000000000000602082015250565b7f4552433732313a20746f6b656e20616c7265616479206d696e74656400000000600082015250565b7f4552433732313a207472616e7366657220746f20746865207a65726f2061646460008201527f7265737300000000000000000000000000000000000000000000000000000000602082015250565b7f4552433732313a20617070726f766520746f2063616c6c657200000000000000600082015250565b7f4552433732313a206f70657261746f7220717565727920666f72206e6f6e657860008201527f697374656e7420746f6b656e0000000000000000000000000000000000000000602082015250565b7f57616c6c6574206c696d697420697320726561636865642e0000000000000000600082015250565b7f4552433732313a20617070726f76652063616c6c6572206973206e6f74206f7760008201527f6e6572206e6f7220617070726f76656420666f7220616c6c0000000000000000602082015250565b7f4552433732313a2062616c616e636520717565727920666f7220746865207a6560008201527f726f206164647265737300000000000000000000000000000000000000000000602082015250565b7f4552433732313a206f776e657220717565727920666f72206e6f6e657869737460008201527f656e7420746f6b656e0000000000000000000000000000000000000000000000602082015250565b7f4552433732314d657461646174613a2055524920717565727920666f72206e6f60008201527f6e6578697374656e7420426f6f2043726577204e465400000000000000000000602082015250565b7f4552433732313a206d696e7420746f20746865207a65726f2061646472657373600082015250565b7f4552433732313a20617070726f76656420717565727920666f72206e6f6e657860008201527f697374656e7420746f6b656e0000000000000000000000000000000000000000602082015250565b7f4f776e61626c653a2063616c6c6572206973206e6f7420746865206f776e6572600082015250565b7f4552433732313a20617070726f76616c20746f2063757272656e74206f776e6560008201527f7200000000000000000000000000000000000000000000000000000000000000602082015250565b7f4552433732313a207472616e736665722063616c6c6572206973206e6f74206f60008201527f776e6572206e6f7220617070726f766564000000000000000000000000000000602082015250565b7f455243373231456e756d657261626c653a20676c6f62616c20696e646578206f60008201527f7574206f6620626f756e64730000000000000000000000000000000000000000602082015250565b61480c81614084565b811461481757600080fd5b50565b61482381614096565b811461482e57600080fd5b50565b61483a816140a2565b811461484557600080fd5b50565b614851816140ee565b811461485c57600080fd5b5056fea26469706673582212200854daaede11dd3927edea811e86be4121d2d96d754efc607369c8879b15e54864736f6c63430008030033",
  "linkReferences": {},
  "deployedLinkReferences": {}
}